:020000040800F2
:1000000060060020B10100081B0300081703000868
:10001000190300086302000839040008000000000A
:10002000000000000000000000000000390300088C
:1000300065020008000000001D030008E503000839
:10004000CB010008CB010008CB010008CB01000860
:10005000CB010008CB010008CB010008CB01000850
:10006000CB010008CB010008CB010008CB01000840
:10007000CB010008CB010008CB010008CB01000830
:10008000CB010008CB010008CB010008CB01000820
:10009000CB010008CB010008CB010008CB01000810
:1000A000CB010008CB010008CB010008CB01000800
:1000B000CB010008CB010008CB010008CB010008F0
:1000C000CB010008CB010008CB010008CB010008E0
:1000D000CB010008CB010008CB010008CB010008D0
:1000E000CB010008CB010008CB010008CB010008C0
:1000F000CB010008CB010008CB010008CB010008B0
:10010000CB010008CB010008CB010008CB0100089F
:10011000CB010008CB010008CB010008CB0100088F
:10012000CB010008CB010008CB010008CB0100087F
:1001300000F002F800F02CF80AA090E8000C8244CD
:100140008344AAF10107DA4501D100F021F8AFF2AA
:10015000090EBAE80F0013F0010F18BFFB1A43F0A5
:10016000010318474003000050030000002300244F
:1001700000250026103A28BF78C1FBD8520728BFB7
:1001800030C148BF0B6070471FB51FBD10B510BD13
:1001900000F031F81146FFF7F7FF00F04FF900F0DB
:1001A0004FF803B4FFF7F2FF03BC00F053F8000070
:1001B0000948804709480047FEE7FEE7FEE7FEE7FB
:1001C000FEE7FEE7FEE7FEE7FEE7FEE70448054937
:1001D000054A064B70470000E9030008310100089A
:1001E0006000002060060020600200206002002005
:1001F000704770477047754600F028F8AE46050016
:100200006946534620F00700854618B020B5FFF731
:10021000DDFFBDE820404FF000064FF000074FF033
:1002200000084FF0000B21F00701AC46ACE8C00914
:10023000ACE8C009ACE8C009ACE8C0098D4670471D
:100240000446AFF300802046FFF7ABFF004870473D
:100250000000002001491820ABBEFEE72600020086
:100260007047FEE77047002100E0491C8142FCD343
:100270007047F0B5CC78002204F00F03E40601D5F6
:100280008C7823430C784FF00F0C14F0FF0F4FF0D5
:10029000010E1BD005680E880EFA02F42640A64215
:1002A00010D196000CFA06F725EA070703FA06F5BF
:1002B000CE783D43282E02D0482E02D002E0446181
:1002C00000E00461521C082AE5D305600A88FF2A71
:1002D0001CD94468002202F108060EFA06F50E88C1
:1002E0002E40AE420ED196000CFA06F7BC4303FA3C
:1002F00006F7CE783C43282E00D14561CE78482EB3
:1003000000D10561521C082AE5D34460F0BD41616B
:10031000704701617047FEE7FEE7704770470000D5
:10032000044A0029916901D0014300E081439161B1
:100330007047000000100240704700000CB500221A
:10034000264800920192016841F4803101604FF427
:10035000A063016801F4003101910099491C0091EA
:10036000019911B900999942F3D10168890333D5F4
:10037000012101911A490A6842F010020A600A68D4
:1003800022F003020A600A6842F002020A60416831
:10039000416041684160416841F480614160416869
:1003A00021F47C114160416841F4E8114160016829
:1003B00041F08071016001688901FCD5416821F03C
:1003C00003014160416841F0020141604168C1F3AD
:1003D00081010229FAD10CBD01920CBD001002402E
:1003E00000200240704700000F4810B5016841F03E
:1003F0000101016041680D4A1140416001680C4AE9
:1004000011400160016821F480210160416821F4FC
:10041000FE0141604FF41F018160FFF78FFF054926
:100420004FF00060086010BD001002400000FFF8AF
:10043000FFFFF6FE08ED00E0FEE7000008B5012131
:100440002420FFF76DFF10208DF8030003208DF8A6
:1004500002000420104DADF800004FF4807469468E
:100460002846FFF706FF0D4E0D4F21463046FFF799
:100470004EFF04212846FFF74CFF3846FFF7F3FEF6
:1004800021463046FFF745FF04212846FFF73FFF8E
:100490003846FFF7E8FEE8E7001401400008014095
:1004A000C0C62D00B4040008000000206006000053
:0404B0006C010008D3
:0400000508000131BD
:00000001FF
